{
  "contractName": "MyStringStore",
  "abi": [
    {
      "constant": true,
      "inputs": [],
      "name": "Button",
      "outputs": [
        {
          "internalType": "string",
          "name": "",
          "type": "string"
        }
      ],
      "payable": false,
      "stateMutability": "view",
      "type": "function"
    },
    {
      "constant": true,
      "inputs": [],
      "name": "Cage",
      "outputs": [
        {
          "internalType": "string",
          "name": "",
          "type": "string"
        }
      ],
      "payable": false,
      "stateMutability": "view",
      "type": "function"
    },
    {
      "constant": true,
      "inputs": [],
      "name": "Controller",
      "outputs": [
        {
          "internalType": "string",
          "name": "",
          "type": "string"
        }
      ],
      "payable": false,
      "stateMutability": "view",
      "type": "function"
    },
    {
      "constant": true,
      "inputs": [],
      "name": "Display",
      "outputs": [
        {
          "internalType": "string",
          "name": "",
          "type": "string"
        }
      ],
      "payable": false,
      "stateMutability": "view",
      "type": "function"
    },
    {
      "constant": true,
      "inputs": [],
      "name": "Door",
      "outputs": [
        {
          "internalType": "string",
          "name": "",
          "type": "string"
        }
      ],
      "payable": false,
      "stateMutability": "view",
      "type": "function"
    },
    {
      "constant": true,
      "inputs": [],
      "name": "Motor",
      "outputs": [
        {
          "internalType": "string",
          "name": "",
          "type": "string"
        }
      ],
      "payable": false,
      "stateMutability": "view",
      "type": "function"
    },
    {
      "constant": false,
      "inputs": [
        {
          "internalType": "string",
          "name": "b",
          "type": "string"
        }
      ],
      "name": "motorSet",
      "outputs": [],
      "payable": false,
      "stateMutability": "nonpayable",
      "type": "function"
    },
    {
      "constant": false,
      "inputs": [
        {
          "internalType": "string",
          "name": "a",
          "type": "string"
        }
      ],
      "name": "cageSet",
      "outputs": [],
      "payable": false,
      "stateMutability": "nonpayable",
      "type": "function"
    },
    {
      "constant": false,
      "inputs": [
        {
          "internalType": "string",
          "name": "c",
          "type": "string"
        }
      ],
      "name": "controllerSet",
      "outputs": [],
      "payable": false,
      "stateMutability": "nonpayable",
      "type": "function"
    },
    {
      "constant": false,
      "inputs": [
        {
          "internalType": "string",
          "name": "d",
          "type": "string"
        }
      ],
      "name": "doorSet",
      "outputs": [],
      "payable": false,
      "stateMutability": "nonpayable",
      "type": "function"
    },
    {
      "constant": false,
      "inputs": [
        {
          "internalType": "string",
          "name": "e",
          "type": "string"
        }
      ],
      "name": "buttonSet",
      "outputs": [],
      "payable": false,
      "stateMutability": "nonpayable",
      "type": "function"
    },
    {
      "constant": false,
      "inputs": [
        {
          "internalType": "string",
          "name": "f",
          "type": "string"
        }
      ],
      "name": "displaySet",
      "outputs": [],
      "payable": false,
      "stateMutability": "nonpayable",
      "type": "function"
    }
  ],
  "bytecode": "0x60806040526040518060400160405280601881526020017f2d2d2d436f6e74726f6c6c657273206e65656465642d2d2d00000000000000008152506000908051906020019062000051929190620001ec565b506040518060400160405280601281526020017f2d2d2d4361676573206e65656465642d2d2d0000000000000000000000000000815250600190805190602001906200009f929190620001ec565b506040518060400160405280601381526020017f2d2d2d4d6f746f7273206e65656465642d2d2d0000000000000000000000000081525060029080519060200190620000ed929190620001ec565b506040518060400160405280601281526020017f2d2d2d446f6f7273206e65656465642d2d2d0000000000000000000000000000815250600390805190602001906200013b929190620001ec565b506040518060400160405280601481526020017f2d2d2d427574746f6e73206e65656465642d2d2d0000000000000000000000008152506004908051906020019062000189929190620001ec565b506040518060400160405280601581526020017f2d2d2d446973706c617973206e65656465642d2d2d000000000000000000000081525060059080519060200190620001d7929190620001ec565b50348015620001e557600080fd5b506200029b565b828054600181600116156101000203166002900490600052602060002090601f016020900481019282601f106200022f57805160ff191683800117855562000260565b8280016001018555821562000260579182015b828111156200025f57825182559160200191906001019062000242565b5b5090506200026f919062000273565b5090565b6200029891905b80821115620002945760008160009055506001016200027a565b5090565b90565b610d5780620002ab6000396000f3fe608060405234801561001057600080fd5b50600436106100b45760003560e01c806376c390fe1161007157806376c390fe1461043b5780637a344b8d146104be5780637cba481e14610579578063860c7dbc146105fc578063b48dcde9146106b7578063d88459da14610772576100b4565b80632308ed18146100b957806336e40a6e1461013c57806340828aeb146101f7578063420c14eb1461027a5780635c67db401461033557806364679356146103b8575b600080fd5b6100c161082d565b6040518080602001828103825283818151815260200191508051906020019080838360005b838110156101015780820151818401526020810190506100e6565b50505050905090810190601f16801561012e5780820380516001836020036101000a031916815260200191505b509250505060405180910390f35b6101f56004803603602081101561015257600080fd5b810190808035906020019064010000000081111561016f57600080fd5b82018360208201111561018157600080fd5b803590602001918460018302840111640100000000831117156101a357600080fd5b91908080601f016020809104026020016040519081016040528093929190818152602001838380828437600081840152601f19601f8201169050808301925050505050505091929192905050506108cb565b005b6101ff6108e5565b6040518080602001828103825283818151815260200191508051906020019080838360005b8381101561023f578082015181840152602081019050610224565b50505050905090810190601f16801561026c5780820380516001836020036101000a031916815260200191505b509250505060405180910390f35b6103336004803603602081101561029057600080fd5b81019080803590602001906401000000008111156102ad57600080fd5b8201836020820111156102bf57600080fd5b803590602001918460018302840111640100000000831117156102e157600080fd5b91908080601f016020809104026020016040519081016040528093929190818152602001838380828437600081840152601f19601f820116905080830192505050505050509192919290505050610983565b005b61033d61099d565b6040518080602001828103825283818151815260200191508051906020019080838360005b8381101561037d578082015181840152602081019050610362565b50505050905090810190601f1680156103aa5780820380516001836020036101000a031916815260200191505b509250505060405180910390f35b6103c0610a3b565b6040518080602001828103825283818151815260200191508051906020019080838360005b838110156104005780820151818401526020810190506103e5565b50505050905090810190601f16801561042d5780820380516001836020036101000a031916815260200191505b509250505060405180910390f35b610443610ad9565b6040518080602001828103825283818151815260200191508051906020019080838360005b83811015610483578082015181840152602081019050610468565b50505050905090810190601f1680156104b05780820380516001836020036101000a031916815260200191505b509250505060405180910390f35b610577600480360360208110156104d457600080fd5b81019080803590602001906401000000008111156104f157600080fd5b82018360208201111561050357600080fd5b8035906020019184600183028401116401000000008311171561052557600080fd5b91908080601f016020809104026020016040519081016040528093929190818152602001838380828437600081840152601f19601f820116905080830192505050505050509192919290505050610b77565b005b610581610b91565b6040518080602001828103825283818151815260200191508051906020019080838360005b838110156105c15780820151818401526020810190506105a6565b50505050905090810190601f1680156105ee5780820380516001836020036101000a031916815260200191505b509250505060405180910390f35b6106b56004803603602081101561061257600080fd5b810190808035906020019064010000000081111561062f57600080fd5b82018360208201111561064157600080fd5b8035906020019184600183028401116401000000008311171561066357600080fd5b91908080601f016020809104026020016040519081016040528093929190818152602001838380828437600081840152601f19601f820116905080830192505050505050509192919290505050610c2f565b005b610770600480360360208110156106cd57600080fd5b81019080803590602001906401000000008111156106ea57600080fd5b8201836020820111156106fc57600080fd5b8035906020019184600183028401116401000000008311171561071e57600080fd5b91908080601f016020809104026020016040519081016040528093929190818152602001838380828437600081840152601f19601f820116905080830192505050505050509192919290505050610c49565b005b61082b6004803603602081101561078857600080fd5b81019080803590602001906401000000008111156107a557600080fd5b8201836020820111156107b757600080fd5b803590602001918460018302840111640100000000831117156107d957600080fd5b91908080601f016020809104026020016040519081016040528093929190818152602001838380828437600081840152601f19601f820116905080830192505050505050509192919290505050610c63565b005b60018054600181600116156101000203166002900480601f0160208091040260200160405190810160405280929190818152602001828054600181600116156101000203166002900480156108c35780601f10610898576101008083540402835291602001916108c3565b820191906000526020600020905b8154815290600101906020018083116108a657829003601f168201915b505050505081565b80600190805190602001906108e1929190610c7d565b5050565b60048054600181600116156101000203166002900480601f01602080910402602001604051908101604052809291908181526020018280546001816001161561010002031660029004801561097b5780601f106109505761010080835404028352916020019161097b565b820191906000526020600020905b81548152906001019060200180831161095e57829003601f168201915b505050505081565b8060059080519060200190610999929190610c7d565b5050565b60038054600181600116156101000203166002900480601f016020809104026020016040519081016040528092919081815260200182805460018160011615610100020316600290048015610a335780601f10610a0857610100808354040283529160200191610a33565b820191906000526020600020905b815481529060010190602001808311610a1657829003601f168201915b505050505081565b60008054600181600116156101000203166002900480601f016020809104026020016040519081016040528092919081815260200182805460018160011615610100020316600290048015610ad15780601f10610aa657610100808354040283529160200191610ad1565b820191906000526020600020905b815481529060010190602001808311610ab457829003601f168201915b505050505081565b60058054600181600116156101000203166002900480601f016020809104026020016040519081016040528092919081815260200182805460018160011615610100020316600290048015610b6f5780601f10610b4457610100808354040283529160200191610b6f565b820191906000526020600020905b815481529060010190602001808311610b5257829003601f168201915b505050505081565b8060049080519060200190610b8d929190610c7d565b5050565b60028054600181600116156101000203166002900480601f016020809104026020016040519081016040528092919081815260200182805460018160011615610100020316600290048015610c275780601f10610bfc57610100808354040283529160200191610c27565b820191906000526020600020905b815481529060010190602001808311610c0a57829003601f168201915b505050505081565b8060029080519060200190610c45929190610c7d565b5050565b8060039080519060200190610c5f929190610c7d565b5050565b8060009080519060200190610c79929190610c7d565b5050565b828054600181600116156101000203166002900490600052602060002090601f016020900481019282601f10610cbe57805160ff1916838001178555610cec565b82800160010185558215610cec579182015b82811115610ceb578251825591602001919060010190610cd0565b5b509050610cf99190610cfd565b5090565b610d1f91905b80821115610d1b576000816000905550600101610d03565b5090565b9056fea265627a7a7231582055f58c5e010b3d2eafc693cea8f307383b84ae5a596f58d8de6a78a313e8536964736f6c63430005100032",
  "source": "// SPDX-License-Identifier: MIT\r\npragma solidity >=0.4.22 <0.8.0;\r\n\r\ncontract MyStringStore {\r\n  string public Controller = \"---Controllers needed---\";\r\n  string public Cage = \"---Cages needed---\";\r\n  string public Motor = \"---Motors needed---\";\r\n  // string public myString = \"---Service Level---\";\r\n  string public Door = \"---Doors needed---\";\r\n  string public Button = \"---Buttons needed---\";\r\n  string public Display = \"---Displays needed---\";\r\n\r\n  // function set(string memory x) public {\r\n  //   myString = x;\r\n  // }\r\n\r\n  function motorSet(string memory b) public {\r\n    Motor = b;\r\n  }\r\n\r\n  function cageSet(string memory a) public {\r\n    Cage = a;\r\n  }\r\n\r\n  function controllerSet(string memory c) public {\r\n    Controller = c;\r\n  }\r\n\r\n  function doorSet(string memory d) public {\r\n    Door = d;\r\n  }\r\n\r\n  function buttonSet(string memory e) public {\r\n    Button = e;\r\n  }\r\n\r\n  function displaySet(string memory f) public {\r\n    Display = f;\r\n  }\r\n}",
  "sourcePath": "C:/users/willy/desktop/Rocket_Elevators_Smart_Contracts/contracts/MyStringStore.sol",
  "compiler": {
    "name": "solc",
    "version": "0.5.16+commit.9c3226ce.Emscripten.clang"
  },
  "schemaVersion": "3.3.2",
  "updatedAt": "2020-12-10T02:26:50.667Z",
  "networkType": "ethereum",
  "devdoc": {
    "methods": {}
  },
  "userdoc": {
    "methods": {}
  }
}