{
  "contractName": "MyStringStore",
  "abi": [
    {
      "constant": true,
      "inputs": [],
      "name": "Button",
      "outputs": [
        {
          "internalType": "uint256",
          "name": "",
          "type": "uint256"
        }
      ],
      "payable": false,
      "stateMutability": "view",
      "type": "function"
    },
    {
      "constant": true,
      "inputs": [],
      "name": "Cage",
      "outputs": [
        {
          "internalType": "uint256",
          "name": "",
          "type": "uint256"
        }
      ],
      "payable": false,
      "stateMutability": "view",
      "type": "function"
    },
    {
      "constant": true,
      "inputs": [],
      "name": "Controller",
      "outputs": [
        {
          "internalType": "uint256",
          "name": "",
          "type": "uint256"
        }
      ],
      "payable": false,
      "stateMutability": "view",
      "type": "function"
    },
    {
      "constant": true,
      "inputs": [],
      "name": "Display",
      "outputs": [
        {
          "internalType": "uint256",
          "name": "",
          "type": "uint256"
        }
      ],
      "payable": false,
      "stateMutability": "view",
      "type": "function"
    },
    {
      "constant": true,
      "inputs": [],
      "name": "Door",
      "outputs": [
        {
          "internalType": "uint256",
          "name": "",
          "type": "uint256"
        }
      ],
      "payable": false,
      "stateMutability": "view",
      "type": "function"
    },
    {
      "constant": true,
      "inputs": [],
      "name": "Motor",
      "outputs": [
        {
          "internalType": "uint256",
          "name": "",
          "type": "uint256"
        }
      ],
      "payable": false,
      "stateMutability": "view",
      "type": "function"
    },
    {
      "constant": false,
      "inputs": [
        {
          "internalType": "uint256",
          "name": "b",
          "type": "uint256"
        },
        {
          "internalType": "uint256",
          "name": "a",
          "type": "uint256"
        },
        {
          "internalType": "uint256",
          "name": "c",
          "type": "uint256"
        },
        {
          "internalType": "uint256",
          "name": "d",
          "type": "uint256"
        },
        {
          "internalType": "uint256",
          "name": "e",
          "type": "uint256"
        },
        {
          "internalType": "uint256",
          "name": "f",
          "type": "uint256"
        }
      ],
      "name": "stringSet",
      "outputs": [],
      "payable": false,
      "stateMutability": "nonpayable",
      "type": "function"
    },
    {
      "constant": false,
      "inputs": [
        {
          "internalType": "uint256",
          "name": "b",
          "type": "uint256"
        }
      ],
      "name": "motorSet",
      "outputs": [],
      "payable": false,
      "stateMutability": "nonpayable",
      "type": "function"
    },
    {
      "constant": false,
      "inputs": [
        {
          "internalType": "uint256",
          "name": "a",
          "type": "uint256"
        }
      ],
      "name": "cageSet",
      "outputs": [],
      "payable": false,
      "stateMutability": "nonpayable",
      "type": "function"
    },
    {
      "constant": false,
      "inputs": [
        {
          "internalType": "uint256",
          "name": "c",
          "type": "uint256"
        }
      ],
      "name": "controllerSet",
      "outputs": [],
      "payable": false,
      "stateMutability": "nonpayable",
      "type": "function"
    },
    {
      "constant": false,
      "inputs": [
        {
          "internalType": "uint256",
          "name": "d",
          "type": "uint256"
        }
      ],
      "name": "doorSet",
      "outputs": [],
      "payable": false,
      "stateMutability": "nonpayable",
      "type": "function"
    },
    {
      "constant": false,
      "inputs": [
        {
          "internalType": "uint256",
          "name": "e",
          "type": "uint256"
        }
      ],
      "name": "buttonSet",
      "outputs": [],
      "payable": false,
      "stateMutability": "nonpayable",
      "type": "function"
    },
    {
      "constant": false,
      "inputs": [
        {
          "internalType": "uint256",
          "name": "f",
          "type": "uint256"
        }
      ],
      "name": "displaySet",
      "outputs": [],
      "payable": false,
      "stateMutability": "nonpayable",
      "type": "function"
    }
  ],
  "bytecode": "0x6080604052600080556000600155600060025560006003556000600455600060055534801561002d57600080fd5b506103c38061003d6000396000f3fe608060405234801561001057600080fd5b50600436106100cf5760003560e01c80635c67db401161008c5780637cba481e116100665780637cba481e146102225780639111a01014610240578063b0f686b81461026e578063f44043cb1461029c576100cf565b80635c67db40146101c857806364679356146101e657806376c390fe14610204576100cf565b80632308ed18146100d457806332c6435f146100f257806340828aeb1461012057806340ec83da1461013e57806349e34f2b1461016c5780634fc0065b1461019a575b600080fd5b6100dc6102fc565b6040518082815260200191505060405180910390f35b61011e6004803603602081101561010857600080fd5b8101908080359060200190929190505050610302565b005b61012861030c565b6040518082815260200191505060405180910390f35b61016a6004803603602081101561015457600080fd5b8101908080359060200190929190505050610312565b005b6101986004803603602081101561018257600080fd5b810190808035906020019092919050505061031c565b005b6101c6600480360360208110156101b057600080fd5b8101908080359060200190929190505050610326565b005b6101d0610330565b6040518082815260200191505060405180910390f35b6101ee610336565b6040518082815260200191505060405180910390f35b61020c61033c565b6040518082815260200191505060405180910390f35b61022a610342565b6040518082815260200191505060405180910390f35b61026c6004803603602081101561025657600080fd5b8101908080359060200190929190505050610348565b005b61029a6004803603602081101561028457600080fd5b8101908080359060200190929190505050610352565b005b6102fa600480360360c08110156102b257600080fd5b8101908080359060200190929190803590602001909291908035906020019092919080359060200190929190803590602001909291908035906020019092919050505061035c565b005b60025481565b8060008190555050565b60055481565b8060028190555050565b8060048190555050565b8060058190555050565b60045481565b60015481565b60005481565b60035481565b8060018190555050565b8060038190555050565b84600281905550836001819055508160058190555082600481905550806000819055508560038190555050505050505056fea265627a7a72315820d9fa2d26b5ff2a4379ac845686c3cbae3cff47f63eadc5b86e360afa87faa26564736f6c63430005100032",
  "source": "// SPDX-License-Identifier: MIT\r\npragma solidity >=0.4.22 <0.8.0;\r\n\r\ncontract MyStringStore {\r\n    uint256 public Display = 0;\r\n    uint256 public Controller = 0;\r\n    uint256 public Cage = 0;\r\n    uint256 public Motor = 0;\r\n    uint256 public Door = 0;\r\n    uint256 public Button = 0;\r\n\r\n    function stringSet(uint256 b, uint256 a, uint256 c, uint256 d, uint256 e, uint256 f) public {\r\n        Cage = a;\r\n        Controller = c;\r\n        Button = e;\r\n        Door = d;\r\n        Display = f;\r\n        Motor = b;\r\n    }\r\n\r\n    function motorSet(uint256 b) public {\r\n        Motor = b;\r\n    }\r\n\r\n    function cageSet(uint256 a) public {\r\n        Cage = a;\r\n    }\r\n\r\n    function controllerSet(uint256 c) public {\r\n        Controller = c;\r\n    }\r\n\r\n    function doorSet(uint256 d) public {\r\n        Door = d;\r\n    }\r\n\r\n    function buttonSet(uint256 e) public {\r\n        Button = e;\r\n    }\r\n\r\n    function displaySet(uint256 f) public {\r\n        Display = f;\r\n    }\r\n}\r\n",
  "sourcePath": "C:/users/willy/desktop/Rocket_Elevators_Smart_Contracts/contracts/MyStringStore.sol",
  "compiler": {
    "name": "solc",
    "version": "0.5.16+commit.9c3226ce.Emscripten.clang"
  },
  "schemaVersion": "3.3.2",
  "updatedAt": "2020-12-10T16:56:08.914Z",
  "networkType": "ethereum",
  "devdoc": {
    "methods": {}
  },
  "userdoc": {
    "methods": {}
  }
}