{
  "contractName": "MyStringStore",
  "abi": [
    {
      "constant": true,
      "inputs": [],
      "name": "Button",
      "outputs": [
        {
          "internalType": "uint256",
          "name": "",
          "type": "uint256"
        }
      ],
      "payable": false,
      "stateMutability": "view",
      "type": "function"
    },
    {
      "constant": true,
      "inputs": [],
      "name": "Cage",
      "outputs": [
        {
          "internalType": "uint256",
          "name": "",
          "type": "uint256"
        }
      ],
      "payable": false,
      "stateMutability": "view",
      "type": "function"
    },
    {
      "constant": true,
      "inputs": [],
      "name": "Controller",
      "outputs": [
        {
          "internalType": "uint256",
          "name": "",
          "type": "uint256"
        }
      ],
      "payable": false,
      "stateMutability": "view",
      "type": "function"
    },
    {
      "constant": true,
      "inputs": [],
      "name": "Display",
      "outputs": [
        {
          "internalType": "string",
          "name": "",
          "type": "string"
        }
      ],
      "payable": false,
      "stateMutability": "view",
      "type": "function"
    },
    {
      "constant": true,
      "inputs": [],
      "name": "Door",
      "outputs": [
        {
          "internalType": "uint256",
          "name": "",
          "type": "uint256"
        }
      ],
      "payable": false,
      "stateMutability": "view",
      "type": "function"
    },
    {
      "constant": true,
      "inputs": [],
      "name": "Motor",
      "outputs": [
        {
          "internalType": "uint256",
          "name": "",
          "type": "uint256"
        }
      ],
      "payable": false,
      "stateMutability": "view",
      "type": "function"
    },
    {
      "constant": false,
      "inputs": [
        {
          "internalType": "uint256",
          "name": "b",
          "type": "uint256"
        }
      ],
      "name": "motorSet",
      "outputs": [],
      "payable": false,
      "stateMutability": "nonpayable",
      "type": "function"
    },
    {
      "constant": false,
      "inputs": [
        {
          "internalType": "uint256",
          "name": "a",
          "type": "uint256"
        }
      ],
      "name": "cageSet",
      "outputs": [],
      "payable": false,
      "stateMutability": "nonpayable",
      "type": "function"
    },
    {
      "constant": false,
      "inputs": [
        {
          "internalType": "uint256",
          "name": "c",
          "type": "uint256"
        }
      ],
      "name": "controllerSet",
      "outputs": [],
      "payable": false,
      "stateMutability": "nonpayable",
      "type": "function"
    },
    {
      "constant": false,
      "inputs": [
        {
          "internalType": "uint256",
          "name": "d",
          "type": "uint256"
        }
      ],
      "name": "doorSet",
      "outputs": [],
      "payable": false,
      "stateMutability": "nonpayable",
      "type": "function"
    },
    {
      "constant": false,
      "inputs": [
        {
          "internalType": "uint256",
          "name": "e",
          "type": "uint256"
        }
      ],
      "name": "buttonSet",
      "outputs": [],
      "payable": false,
      "stateMutability": "nonpayable",
      "type": "function"
    },
    {
      "constant": false,
      "inputs": [
        {
          "internalType": "string",
          "name": "f",
          "type": "string"
        }
      ],
      "name": "displaySet",
      "outputs": [],
      "payable": false,
      "stateMutability": "nonpayable",
      "type": "function"
    }
  ],
  "bytecode": "0x60806040526040518060400160405280601581526020017f2d2d2d446973706c617973206e65656465642d2d2d00000000000000000000008152506000908051906020019061004f929190610062565b5034801561005c57600080fd5b50610107565b828054600181600116156101000203166002900490600052602060002090601f016020900481019282601f106100a357805160ff19168380011785556100d1565b828001600101855582156100d1579182015b828111156100d05782518255916020019190600101906100b5565b5b5090506100de91906100e2565b5090565b61010491905b808211156101005760008160009055506001016100e8565b5090565b90565b610555806101166000396000f3fe608060405234801561001057600080fd5b50600436106100b45760003560e01c80635c67db40116100715780635c67db401461023a578063646793561461025857806376c390fe146102765780637cba481e146102f95780639111a01014610317578063b0f686b814610345576100b4565b80632308ed18146100b957806340828aeb146100d757806340ec83da146100f5578063420c14eb1461012357806349e34f2b146101de5780634fc0065b1461020c575b600080fd5b6100c1610373565b6040518082815260200191505060405180910390f35b6100df610379565b6040518082815260200191505060405180910390f35b6101216004803603602081101561010b57600080fd5b810190808035906020019092919050505061037f565b005b6101dc6004803603602081101561013957600080fd5b810190808035906020019064010000000081111561015657600080fd5b82018360208201111561016857600080fd5b8035906020019184600183028401116401000000008311171561018a57600080fd5b91908080601f016020809104026020016040519081016040528093929190818152602001838380828437600081840152601f19601f820116905080830192505050505050509192919290505050610389565b005b61020a600480360360208110156101f457600080fd5b81019080803590602001909291905050506103a3565b005b6102386004803603602081101561022257600080fd5b81019080803590602001909291905050506103ad565b005b6102426103b7565b6040518082815260200191505060405180910390f35b6102606103bd565b6040518082815260200191505060405180910390f35b61027e6103c3565b6040518080602001828103825283818151815260200191508051906020019080838360005b838110156102be5780820151818401526020810190506102a3565b50505050905090810190601f1680156102eb5780820380516001836020036101000a031916815260200191505b509250505060405180910390f35b610301610461565b6040518082815260200191505060405180910390f35b6103436004803603602081101561032d57600080fd5b8101908080359060200190929190505050610467565b005b6103716004803603602081101561035b57600080fd5b8101908080359060200190929190505050610471565b005b60025481565b60055481565b8060028190555050565b806000908051906020019061039f92919061047b565b5050565b8060048190555050565b8060058190555050565b60045481565b60015481565b60008054600181600116156101000203166002900480601f0160208091040260200160405190810160405280929190818152602001828054600181600116156101000203166002900480156104595780601f1061042e57610100808354040283529160200191610459565b820191906000526020600020905b81548152906001019060200180831161043c57829003601f168201915b505050505081565b60035481565b8060018190555050565b8060038190555050565b828054600181600116156101000203166002900490600052602060002090601f016020900481019282601f106104bc57805160ff19168380011785556104ea565b828001600101855582156104ea579182015b828111156104e95782518255916020019190600101906104ce565b5b5090506104f791906104fb565b5090565b61051d91905b80821115610519576000816000905550600101610501565b5090565b9056fea265627a7a72315820d223e0ff19b97a73c3af59e30e7c7d77a2c43208077a13031e00065598f4ab2e64736f6c63430005100032",
  "source": "// SPDX-License-Identifier: MIT\r\npragma solidity >=0.4.22 <0.8.0;\r\n\r\ncontract MyStringStore {\r\n    // string public Controller = \"---Controllers needed---\";\r\n    // string public Cage = \"---Cages needed---\";\r\n    // string public Motor = \"---Motors needed---\";\r\n    // string public myString = \"---Service Level---\";\r\n    // string public Door = \"---Doors needed---\";\r\n    // string public Button = \"---Buttons needed---\";\r\n\r\n    string public Display = \"---Displays needed---\";\r\n\r\n    uint256 public Controller;\r\n    uint256 public Cage;\r\n    uint256 public Motor;\r\n    uint256 public Door;\r\n    uint256 public Button;\r\n\r\n    function motorSet(uint256 b) public {\r\n        Motor = b;\r\n    }\r\n\r\n    function cageSet(uint256 a) public {\r\n        Cage = a;\r\n    }\r\n\r\n    function controllerSet(uint256 c) public {\r\n        Controller = c;\r\n    }\r\n\r\n    function doorSet(uint256 d) public {\r\n        Door = d;\r\n    }\r\n\r\n    function buttonSet(uint256 e) public {\r\n        Button = e;\r\n    }\r\n\r\n    function displaySet(string memory f) public {\r\n        Display = f;\r\n    }\r\n}\r\n",
  "sourcePath": "D:/CodeBoxx/Odyssey/Week12/Rocket_Elevators_Smart_Contracts/contracts/MyStringStore.sol",
  "compiler": {
    "name": "solc",
    "version": "0.5.16+commit.9c3226ce.Emscripten.clang"
  },
  "schemaVersion": "3.3.2",
  "updatedAt": "2020-12-10T12:48:42.401Z",
  "devdoc": {
    "methods": {}
  },
  "userdoc": {
    "methods": {}
  }
}