{
  "contractName": "MyStringStore",
  "abi": [
    {
      "constant": true,
      "inputs": [],
      "name": "Button",
      "outputs": [
        {
          "internalType": "uint256",
          "name": "",
          "type": "uint256"
        }
      ],
      "payable": false,
      "stateMutability": "view",
      "type": "function"
    },
    {
      "constant": true,
      "inputs": [],
      "name": "Cage",
      "outputs": [
        {
          "internalType": "uint256",
          "name": "",
          "type": "uint256"
        }
      ],
      "payable": false,
      "stateMutability": "view",
      "type": "function"
    },
    {
      "constant": true,
      "inputs": [],
      "name": "Controller",
      "outputs": [
        {
          "internalType": "uint256",
          "name": "",
          "type": "uint256"
        }
      ],
      "payable": false,
      "stateMutability": "view",
      "type": "function"
    },
    {
      "constant": true,
      "inputs": [],
      "name": "Display",
      "outputs": [
        {
          "internalType": "uint256",
          "name": "",
          "type": "uint256"
        }
      ],
      "payable": false,
      "stateMutability": "view",
      "type": "function"
    },
    {
      "constant": true,
      "inputs": [],
      "name": "Door",
      "outputs": [
        {
          "internalType": "uint256",
          "name": "",
          "type": "uint256"
        }
      ],
      "payable": false,
      "stateMutability": "view",
      "type": "function"
    },
    {
      "constant": true,
      "inputs": [],
      "name": "Motor",
      "outputs": [
        {
          "internalType": "uint256",
          "name": "",
          "type": "uint256"
        }
      ],
      "payable": false,
      "stateMutability": "view",
      "type": "function"
    },
    {
      "constant": false,
      "inputs": [
        {
          "internalType": "uint256",
          "name": "b",
          "type": "uint256"
        }
      ],
      "name": "motorSet",
      "outputs": [],
      "payable": false,
      "stateMutability": "nonpayable",
      "type": "function"
    },
    {
      "constant": false,
      "inputs": [
        {
          "internalType": "uint256",
          "name": "a",
          "type": "uint256"
        }
      ],
      "name": "cageSet",
      "outputs": [],
      "payable": false,
      "stateMutability": "nonpayable",
      "type": "function"
    },
    {
      "constant": false,
      "inputs": [
        {
          "internalType": "uint256",
          "name": "c",
          "type": "uint256"
        }
      ],
      "name": "controllerSet",
      "outputs": [],
      "payable": false,
      "stateMutability": "nonpayable",
      "type": "function"
    },
    {
      "constant": false,
      "inputs": [
        {
          "internalType": "uint256",
          "name": "d",
          "type": "uint256"
        }
      ],
      "name": "doorSet",
      "outputs": [],
      "payable": false,
      "stateMutability": "nonpayable",
      "type": "function"
    },
    {
      "constant": false,
      "inputs": [
        {
          "internalType": "uint256",
          "name": "e",
          "type": "uint256"
        }
      ],
      "name": "buttonSet",
      "outputs": [],
      "payable": false,
      "stateMutability": "nonpayable",
      "type": "function"
    },
    {
      "constant": false,
      "inputs": [
        {
          "internalType": "uint256",
          "name": "f",
          "type": "uint256"
        }
      ],
      "name": "displaySet",
      "outputs": [],
      "payable": false,
      "stateMutability": "nonpayable",
      "type": "function"
    }
  ],
  "bytecode": "0x6080604052600080556000600155600060025560006003556000600455600060055534801561002d57600080fd5b506103168061003d6000396000f3fe608060405234801561001057600080fd5b50600436106100b45760003560e01c80635c67db40116100715780635c67db40146101ad57806364679356146101cb57806376c390fe146101e95780637cba481e146102075780639111a01014610225578063b0f686b814610253576100b4565b80632308ed18146100b957806332c6435f146100d757806340828aeb1461010557806340ec83da1461012357806349e34f2b146101515780634fc0065b1461017f575b600080fd5b6100c1610281565b6040518082815260200191505060405180910390f35b610103600480360360208110156100ed57600080fd5b8101908080359060200190929190505050610287565b005b61010d610291565b6040518082815260200191505060405180910390f35b61014f6004803603602081101561013957600080fd5b8101908080359060200190929190505050610297565b005b61017d6004803603602081101561016757600080fd5b81019080803590602001909291905050506102a1565b005b6101ab6004803603602081101561019557600080fd5b81019080803590602001909291905050506102ab565b005b6101b56102b5565b6040518082815260200191505060405180910390f35b6101d36102bb565b6040518082815260200191505060405180910390f35b6101f16102c1565b6040518082815260200191505060405180910390f35b61020f6102c7565b6040518082815260200191505060405180910390f35b6102516004803603602081101561023b57600080fd5b81019080803590602001909291905050506102cd565b005b61027f6004803603602081101561026957600080fd5b81019080803590602001909291905050506102d7565b005b60025481565b8060008190555050565b60055481565b8060028190555050565b8060048190555050565b8060058190555050565b60045481565b60015481565b60005481565b60035481565b8060018190555050565b806003819055505056fea265627a7a72315820bded2ea0ab6d557d2f95b5f82ebd97ae8e8f16d4381f4ff37749a067a22b778264736f6c63430005100032",
  "source": "// SPDX-License-Identifier: MIT\r\npragma solidity >=0.4.22 <0.8.0;\r\n\r\ncontract MyStringStore {\r\n    uint256 public Display = 0;\r\n    uint256 public Controller = 0;\r\n    uint256 public Cage = 0;\r\n    uint256 public Motor = 0;\r\n    uint256 public Door = 0;\r\n    uint256 public Button = 0;\r\n\r\n    function motorSet(uint256 b) public {\r\n        Motor = b;\r\n    }\r\n\r\n    function cageSet(uint256 a) public {\r\n        Cage = a;\r\n    }\r\n\r\n    function controllerSet(uint256 c) public {\r\n        Controller = c;\r\n    }\r\n\r\n    function doorSet(uint256 d) public {\r\n        Door = d;\r\n    }\r\n\r\n    function buttonSet(uint256 e) public {\r\n        Button = e;\r\n    }\r\n\r\n    function displaySet(uint256 f) public {\r\n        Display = f;\r\n    }\r\n}\r\n",
  "sourcePath": "C:/users/willy/desktop/Rocket_Elevators_Smart_Contracts/contracts/MyStringStore.sol",
  "compiler": {
    "name": "solc",
    "version": "0.5.16+commit.9c3226ce.Emscripten.clang"
  },
  "schemaVersion": "3.3.2",
  "updatedAt": "2020-12-10T14:55:02.116Z",
  "networkType": "ethereum",
  "devdoc": {
    "methods": {}
  },
  "userdoc": {
    "methods": {}
  }
}