{
  "contractName": "ProjectOffice",
  "abi": [
    {
      "constant": true,
      "inputs": [],
      "name": "Button",
      "outputs": [
        {
          "internalType": "uint256",
          "name": "",
          "type": "uint256"
        }
      ],
      "payable": false,
      "stateMutability": "view",
      "type": "function"
    },
    {
      "constant": true,
      "inputs": [],
      "name": "Cage",
      "outputs": [
        {
          "internalType": "uint256",
          "name": "",
          "type": "uint256"
        }
      ],
      "payable": false,
      "stateMutability": "view",
      "type": "function"
    },
    {
      "constant": true,
      "inputs": [],
      "name": "Controller",
      "outputs": [
        {
          "internalType": "uint256",
          "name": "",
          "type": "uint256"
        }
      ],
      "payable": false,
      "stateMutability": "view",
      "type": "function"
    },
    {
      "constant": true,
      "inputs": [],
      "name": "Display",
      "outputs": [
        {
          "internalType": "uint256",
          "name": "",
          "type": "uint256"
        }
      ],
      "payable": false,
      "stateMutability": "view",
      "type": "function"
    },
    {
      "constant": true,
      "inputs": [],
      "name": "Door",
      "outputs": [
        {
          "internalType": "uint256",
          "name": "",
          "type": "uint256"
        }
      ],
      "payable": false,
      "stateMutability": "view",
      "type": "function"
    },
    {
      "constant": true,
      "inputs": [],
      "name": "Motor",
      "outputs": [
        {
          "internalType": "uint256",
          "name": "",
          "type": "uint256"
        }
      ],
      "payable": false,
      "stateMutability": "view",
      "type": "function"
    },
    {
      "constant": false,
      "inputs": [
        {
          "internalType": "uint256",
          "name": "b",
          "type": "uint256"
        },
        {
          "internalType": "uint256",
          "name": "a",
          "type": "uint256"
        },
        {
          "internalType": "uint256",
          "name": "c",
          "type": "uint256"
        },
        {
          "internalType": "uint256",
          "name": "d",
          "type": "uint256"
        },
        {
          "internalType": "uint256",
          "name": "e",
          "type": "uint256"
        },
        {
          "internalType": "uint256",
          "name": "f",
          "type": "uint256"
        }
      ],
      "name": "stringSet",
      "outputs": [],
      "payable": false,
      "stateMutability": "nonpayable",
      "type": "function"
    },
    {
      "constant": true,
      "inputs": [],
      "name": "getData",
      "outputs": [
        {
          "internalType": "uint256[6]",
          "name": "",
          "type": "uint256[6]"
        }
      ],
      "payable": false,
      "stateMutability": "view",
      "type": "function"
    },
    {
      "constant": false,
      "inputs": [
        {
          "internalType": "uint256",
          "name": "b",
          "type": "uint256"
        }
      ],
      "name": "motorSet",
      "outputs": [],
      "payable": false,
      "stateMutability": "nonpayable",
      "type": "function"
    },
    {
      "constant": false,
      "inputs": [
        {
          "internalType": "uint256",
          "name": "a",
          "type": "uint256"
        }
      ],
      "name": "cageSet",
      "outputs": [],
      "payable": false,
      "stateMutability": "nonpayable",
      "type": "function"
    },
    {
      "constant": false,
      "inputs": [
        {
          "internalType": "uint256",
          "name": "c",
          "type": "uint256"
        }
      ],
      "name": "controllerSet",
      "outputs": [],
      "payable": false,
      "stateMutability": "nonpayable",
      "type": "function"
    },
    {
      "constant": false,
      "inputs": [
        {
          "internalType": "uint256",
          "name": "d",
          "type": "uint256"
        }
      ],
      "name": "doorSet",
      "outputs": [],
      "payable": false,
      "stateMutability": "nonpayable",
      "type": "function"
    },
    {
      "constant": false,
      "inputs": [
        {
          "internalType": "uint256",
          "name": "e",
          "type": "uint256"
        }
      ],
      "name": "buttonSet",
      "outputs": [],
      "payable": false,
      "stateMutability": "nonpayable",
      "type": "function"
    },
    {
      "constant": false,
      "inputs": [
        {
          "internalType": "uint256",
          "name": "f",
          "type": "uint256"
        }
      ],
      "name": "displaySet",
      "outputs": [],
      "payable": false,
      "stateMutability": "nonpayable",
      "type": "function"
    }
  ],
  "bytecode": "0x6080604052600080556000600155600060025560006003556000600455600060055534801561002d57600080fd5b506104988061003d6000396000f3fe608060405234801561001057600080fd5b50600436106100ea5760003560e01c80635c67db401161008c5780637cba481e116100665780637cba481e146102835780639111a010146102a1578063b0f686b8146102cf578063f44043cb146102fd576100ea565b80635c67db4014610229578063646793561461024757806376c390fe14610265576100ea565b806340828aeb116100c857806340828aeb1461018157806340ec83da1461019f57806349e34f2b146101cd5780634fc0065b146101fb576100ea565b80632308ed18146100ef57806332c6435f1461010d5780633bc5de301461013b575b600080fd5b6100f761035d565b6040518082815260200191505060405180910390f35b6101396004803603602081101561012357600080fd5b8101908080359060200190929190505050610363565b005b61014361036d565b6040518082600660200280838360005b8381101561016e578082015181840152602081019050610153565b5050505090500191505060405180910390f35b6101896103bf565b6040518082815260200191505060405180910390f35b6101cb600480360360208110156101b557600080fd5b81019080803590602001909291905050506103c5565b005b6101f9600480360360208110156101e357600080fd5b81019080803590602001909291905050506103cf565b005b6102276004803603602081101561021157600080fd5b81019080803590602001909291905050506103d9565b005b6102316103e3565b6040518082815260200191505060405180910390f35b61024f6103e9565b6040518082815260200191505060405180910390f35b61026d6103ef565b6040518082815260200191505060405180910390f35b61028b6103f5565b6040518082815260200191505060405180910390f35b6102cd600480360360208110156102b757600080fd5b81019080803590602001909291905050506103fb565b005b6102fb600480360360208110156102e557600080fd5b8101908080359060200190929190505050610405565b005b61035b600480360360c081101561031357600080fd5b8101908080359060200190929190803590602001909291908035906020019092919080359060200190929190803590602001909291908035906020019092919050505061040f565b005b60025481565b8060008190555050565b610375610441565b61037d610441565b6040518060c001604052806001548152602001600254815260200160035481526020016004548152602001600554815260200160005481525090508091505090565b60055481565b8060028190555050565b8060048190555050565b8060058190555050565b60045481565b60015481565b60005481565b60035481565b8060018190555050565b8060038190555050565b846002819055508360018190555081600581905550826004819055508060008190555085600381905550505050505050565b6040518060c0016040528060069060208202803883398082019150509050509056fea265627a7a72315820887fa5582518fff8bcba7ff308538e1d486b34b5a1c3b5465d06287bba22fb4764736f6c63430005100032",
  "source": "// SPDX-License-Identifier: MIT\r\npragma solidity >=0.4.22 <0.8.0;\r\n\r\ncontract ProjectOffice {\r\n    // project Office contract variables to define the order\r\n    uint256 public Display = 0;\r\n    uint256 public Controller = 0;\r\n    uint256 public Cage = 0;\r\n    uint256 public Motor = 0;\r\n    uint256 public Door = 0;\r\n    uint256 public Button = 0;\r\n\r\n    // to initialize the contract !!\r\n    function stringSet(\r\n        uint256 b,\r\n        uint256 a,\r\n        uint256 c,\r\n        uint256 d,\r\n        uint256 e,\r\n        uint256 f\r\n    ) public {\r\n        Cage = a;\r\n        Controller = c;\r\n        Button = e;\r\n        Door = d;\r\n        Display = f;\r\n        Motor = b;\r\n    }\r\n\r\n    // to get the contract data !!\r\n    // the view consume less gas and much more cheep !!\r\n    //  the return value is a public array with the data\r\n    function getData() public view returns (uint256[6] memory) {\r\n        uint256[6] memory data = [\r\n            Controller,\r\n            Cage,\r\n            Motor,\r\n            Door,\r\n            Button,\r\n            Display\r\n        ];\r\n\r\n        return data;\r\n    }\r\n\r\n    //  the first versions we keep it in case we fail to plug in with other nodes to detect the problem\r\n    function motorSet(uint256 b) public {\r\n        Motor = b;\r\n    }\r\n\r\n    function cageSet(uint256 a) public {\r\n        Cage = a;\r\n    }\r\n\r\n    function controllerSet(uint256 c) public {\r\n        Controller = c;\r\n    }\r\n\r\n    function doorSet(uint256 d) public {\r\n        Door = d;\r\n    }\r\n\r\n    function buttonSet(uint256 e) public {\r\n        Button = e;\r\n    }\r\n\r\n    function displaySet(uint256 f) public {\r\n        Display = f;\r\n    }\r\n}\r\n",
  "sourcePath": "D:/CodeBoxx/Odyssey/Week12final/contracts/ProjectOffice.sol",
  "compiler": {
    "name": "solc",
    "version": "0.5.16+commit.9c3226ce.Emscripten.clang"
  },
  "schemaVersion": "3.3.2",
  "updatedAt": "2020-12-12T02:53:06.264Z",
  "networkType": "ethereum",
  "devdoc": {
    "methods": {}
  },
  "userdoc": {
    "methods": {}
  }
}