{
  "contractName": "ProjectOffice",
  "abi": [
    {
      "constant": false,
      "inputs": [
        {
          "internalType": "uint256",
          "name": "batteries",
          "type": "uint256"
        },
        {
          "internalType": "uint256",
          "name": "columns",
          "type": "uint256"
        },
        {
          "internalType": "uint256",
          "name": "elevators",
          "type": "uint256"
        },
        {
          "internalType": "uint256",
          "name": "Floors",
          "type": "uint256"
        }
      ],
      "name": "createOrder",
      "outputs": [],
      "payable": false,
      "stateMutability": "nonpayable",
      "type": "function"
    },
    {
      "constant": true,
      "inputs": [],
      "name": "getOrder",
      "outputs": [
        {
          "components": [
            {
              "internalType": "uint256",
              "name": "shafts",
              "type": "uint256"
            },
            {
              "internalType": "uint256",
              "name": "controllers",
              "type": "uint256"
            },
            {
              "internalType": "uint256",
              "name": "doors",
              "type": "uint256"
            },
            {
              "internalType": "uint256",
              "name": "buttons",
              "type": "uint256"
            },
            {
              "internalType": "uint256",
              "name": "displays",
              "type": "uint256"
            },
            {
              "internalType": "uint256",
              "name": "motors",
              "type": "uint256"
            }
          ],
          "internalType": "struct ProjectOffice.Items[]",
          "name": "",
          "type": "tuple[]"
        }
      ],
      "payable": false,
      "stateMutability": "view",
      "type": "function"
    }
  ],
  "bytecode": "0x608060405234801561001057600080fd5b50610442806100206000396000f3fe608060405234801561001057600080fd5b50600436106100365760003560e01c806380148f961461003b578063d36dedd214610057575b600080fd5b61005560048036036100509190810190610220565b610075565b005b61005f61013a565b60405161006c9190610383565b60405180910390f35b61007d6101d5565b828160000181815250508481602001818152505060028284020281604001818152505060088402600584020181606001818152505082816080018181525050828160a001818152505060008190806001815401808255809150509060018203906000526020600020906006020160009091929091909150600082015181600001556020820151816001015560408201518160020155606082015181600301556080820151816004015560a082015181600501555050505050505050565b60606000805480602002602001604051908101604052809291908181526020016000905b828210156101cc57838290600052602060002090600602016040518060c001604052908160008201548152602001600182015481526020016002820154815260200160038201548152602001600482015481526020016005820154815250508152602001906001019061015e565b50505050905090565b6040518060c001604052806000815260200160008152602001600081526020016000815260200160008152602001600081525090565b60008135905061021a816103e8565b92915050565b6000806000806080858703121561023657600080fd5b60006102448782880161020b565b94505060206102558782880161020b565b93505060406102668782880161020b565b92505060606102778782880161020b565b91505092959194509250565b600061028f83836102f9565b60c08301905092915050565b60006102a6826103b5565b6102b081856103cd565b93506102bb836103a5565b8060005b838110156102ec5781516102d38882610283565b97506102de836103c0565b9250506001810190506102bf565b5085935050505092915050565b60c08201600082015161030f6000850182610374565b5060208201516103226020850182610374565b5060408201516103356040850182610374565b5060608201516103486060850182610374565b50608082015161035b6080850182610374565b5060a082015161036e60a0850182610374565b50505050565b61037d816103de565b82525050565b6000602082019050818103600083015261039d818461029b565b905092915050565b6000819050602082019050919050565b600081519050919050565b6000602082019050919050565b600082825260208201905092915050565b6000819050919050565b6103f1816103de565b81146103fc57600080fd5b5056fea365627a7a72315820c698cb30ddb5a65f250d78e4ce14aa2bd33787d1d3316b5534173d139edcd5716c6578706572696d656e74616cf564736f6c63430005100040",
  "source": "// SPDX-License-Identifier: MIT\r\npragma solidity >=0.4.22 <0.8.0;\r\n// Enable ABIEncoderV2 to use Structs as Function parameters\r\npragma experimental ABIEncoderV2;\r\n\r\ncontract ProjectOffice {\r\n    // command items\r\n    Items[] items;\r\n    address clients;\r\n    // Data Structure\r\n    struct Items {\r\n        uint256 shafts; // =elevators\r\n        uint256 controllers; //batteries\r\n        uint256 doors;\r\n        uint256 buttons;\r\n        uint256 displays; //lcd\r\n        uint256 motors; // = elevators\r\n    }\r\n\r\n    // +-------------+-----------------+--------+--+\r\n    // |    Items    |     Amount      | Total  |  |\r\n    // +-------------+-----------------+--------+--+\r\n    // | Controllers | 1/ Battery      |      1 |  |\r\n    // | Cages       | 1 /elevator     |      8 |  |\r\n    // | Motors      | 2 /elevator     |     16 |  |\r\n    // | Doors       | 5 f x 2 d x 8 e |     80 |  |\r\n    // | Buttons     | 5 /e + 8x 2 C   |    56  |  |\r\n    // | Displays    | 1/elevator      |     8  |  |\r\n    // +-------------+-----------------+--------+--+\r\n\r\n    // Create the order:\r\n    function createOrder(\r\n        uint256 batteries,\r\n        uint256 columns,\r\n        uint256 elevators,\r\n        uint256 Floors\r\n    ) public {\r\n        Items memory order;\r\n        order.shafts = elevators; //8\r\n        order.controllers = batteries; // 1\r\n        order.doors = (elevators * Floors) * 2; // 80\r\n        order.buttons = (elevators * 5) + (columns * 8); //56\r\n        order.displays = elevators; //8\r\n        order.motors = elevators; //16\r\n\r\n        // Add order\r\n        items.push(order);\r\n    }\r\n\r\n    // Get items with minimum gaz !\r\n    function getOrder() public view returns (Items[] memory) {\r\n        return items;\r\n    }\r\n}\r\n",
  "sourcePath": "D:/CodeBoxx/Odyssey/Week 12/Rocket_Elevators_Smart_Contracts/contracts/ProjectOffice.sol",
  "compiler": {
    "name": "solc",
    "version": "0.5.16+commit.9c3226ce.Emscripten.clang"
  },
  "schemaVersion": "3.3.2",
  "updatedAt": "2020-12-08T08:40:12.326Z",
  "devdoc": {
    "methods": {}
  },
  "userdoc": {
    "methods": {}
  }
}